:020000040800F2
:10000000C80700209D01000895280008E520000889
:100010009128000885020008612D000800000000FA
:100020000000000000000000000000009D28000803
:10003000890200080000000099280008592A0008D9
:10004000B7010008B7010008B7010008B7010008B0
:10005000B7010008B7010008B7010008B7010008A0
:10006000B7010008B7010008B7010008B701000890
:10007000B7010008B7010008B7010008B701000880
:10008000B7010008B7010008B7010008B701000870
:10009000B7010008B7010008B7010008B701000860
:1000A000B7010008B7010008B7010008B701000850
:1000B000B7010008B7010008B7010008B701000840
:1000C000B7010008B7010008B7010008B701000830
:1000D000B7010008B7010008B7010008B701000820
:1000E000B7010008B7010008B7010008B701000810
:1000F000B7010008212B0008B7010008B70100086C
:10010000B7010008B7010008B7010008B7010008EF
:10011000B7010008B7010008B7010008B7010008DF
:10012000B7010008B7010008B7010008B7010008CF
:10013000B7010008B7010008B7010008B7010008BF
:10014000B7010008B7010008B7010008B7010008AF
:10015000B7010008B7010008B7010008B70100089F
:10016000B7010008B7010008B7010008B70100088F
:10017000B7010008B7010008B7010008000000003F
:10018000B7010008B7010008DFF80CD000F068F8EC
:1001900000480047852D0008C80700200648804712
:1001A00006480047FEE7FEE7FEE7FEE7FEE7FEE75C
:1001B000FEE7FEE7FEE7FEE70D2B000889010008D9
:1001C0002DE9F05F0546002092469B46884606468C
:1001D000814640241BE0284641464746224600F01F
:1001E0002FF853465A46C01A914110D3114618466B
:1001F000224600F016F82D1A67EB01084F462246FA
:100200000120002100F00DF817EB00094E41201EDF
:10021000A4F10104DFDC484631462A464346BDE8E6
:10022000F09F202A04DB203A00FA02F100207047F8
:100230009140C2F1200320FA03F319439040704724
:10024000202A04DB203A21FA02F00021704721FA2B
:1002500002F3D040C2F12002914008431946704792
:10026000064C074D06E0E06840F0010394E8070003
:1002700098471034AC42F6D3FFF78AFF402E0008AF
:10028000602E0008FEE7000070470000EFF31080CA
:1002900072B600BFFEE700002DE9F04F81B040F2DA
:1002A000F00640F2681940F22C0AC2F200067824E7
:1002B000C2F20009C2F2000A4FF47A70B460C9F8C1
:1002C0000840CAF8084000F06DF840F2DC00C2F2C5
:1002D00000003C25856040F29010C2F2000085606D
:1002E00040F25410C2F20000846040F25400C2F2A6
:1002F000000040F2180B40F218188460C2F2000BA4
:10030000C2F200084FF47A70CBF80850C8F80850D1
:1003100000F048F85A274FF47A70B760C9F80870AF
:10032000CAF8087000F03EF840F2A41940F26806DE
:1003300040F22C1AC2F20009C2F20006C2F2000A10
:100340004FF47A70C9F80840B460CAF8084000F069
:1003500029F840F2DC00C2F20000876040F254103D
:10036000C2F20000876040F29010C2F20000846088
:1003700040F25400C2F2000085604FF47A70CBF86E
:100380000870C8F8084000F00DF8C9F80870B760A8
:100390004FF47A70CAF8087001B0BDE8F04F00F071
:1003A00001B80000B0B5044600F0FCF8054640F284
:1003B0000400C2F200000078611C18BF044400BFB2
:1003C00000F0F0F8401BA042FAD3B0BD2DE9F04F89
:1003D00082B000F13E4241F6004502F1FF77C4F2DF
:1003E000020508224FEAB726A84208BF0722072EB7
:1003F00038BF4FEAB7224FF0010A002400274FF020
:100400000008009208E000BF023708F10108202F21
:1004100004F1040400F0B4800E680AFA08F916EA40
:10042000090FF1D0D1F804A00AF0030BABF10106DB
:10043000012E17D80322866802FA07FECA6826EA48
:100440000E06BA40324382604268CAF3001522EABF
:10045000090205FA08F54FEA480C6FEA0E062A432E
:1004600042600BE00322BA40D643BBF1030FBC4607
:1004700004D1BC464FF0030B22E000BFC2688D6878
:10048000324005FA0CF52A43BBF1020FC26017D1C6
:100490006FF0030202EA5802024404F01C030F2525
:1004A000D2F820E005FA03FA0D692EEA0A0E05FAE1
:1004B00003F343EA0E031362D1F804A00AF0030B1E
:1004C00002680BFA0CF332401A431AF4403F4FF023
:1004D000010A026098D0002243F644030192C4F25C
:1004E00002031A6843F6004E42F480421A601A680A
:1004F000C4F2010E02F480420192019A28F0030234
:100500004FF6084C7244CFF6FF7C52F80C3004F0E2
:100510000C060F25B540AB43009D05FA06F63343A4
:1005200042F80C30DEF808204B6842EA090643F630
:100530000C4CDD0258BF22EA0906CEF80860C4F26E
:10054000010CDCF800209D0242EA090658BF22EAAD
:100550000906CCF80060DEF804209D0342EA090693
:1005600058BF22EA0906CEF80460DEF80020DB035B
:1005700042EA090658BF22EA0906CEF8006043E7BE
:1005800002B0BDE8F08F0000426902EA0103914326
:1005900041EA034181617047002A08BF0904816173
:1005A0007047000040F2C030C2F20000006870479F
:1005B00040F2040040F2C031C2F20000C2F2000179
:1005C00000780A68104408607047000080B543F660
:1005D0000040C4F20200016841F40071016001684A
:1005E00041F480610160016841F480710160032081
:1005F00000F084F80F2000F005F800F027F8002044
:1006000080BD000070B540F20406C2F2000640F260
:1006100010013278C2F200014FF47A730968B3FB1B
:10062000F2F20446B1FBF2F1084600F041FB0F2C58
:100630004FF0010508D838B94FF0FF3021460022AD
:10064000002500F02FF87460284670BD82B00020AD
:1006500043F640010190C4F202014A6842F480422C
:100660004A604A6802F480420192019A0090086848
:1006700040F080500860086800F0805000900098BA
:1006800002B07047002848BF704700F01F010122E8
:1006900002FA01F14EF200124009CEF2000242F8D5
:1006A0002010704710B54EF60C5CCEF2000CDCF852
:1006B0000030C3F3022E8EF00704042C28BF04245C
:1006C000BEF103034FF0FF3E0EFA04F438BF0023DF
:1006D000A14399400EFA03F39A43114300F00F022D
:1006E000043A624409010C3200F16043B0F1FF3F6B
:1006F000C8BF03F56442117010BD00004EF60C51E6
:10070000CEF200010A684FF6FF031A4060F30A2296
:1007100042F0806040F0FD70086070472DE9F041C4
:10072000002800F08B8043F60808C4F20208044653
:10073000D8F8F8030D4600F00700884207D288F881
:10074000F853D8F8F80300F00700A84276D12068E3
:10075000810717D5410705D5D8F8001041F4E051BD
:10076000C8F80010010705D5D8F8001041F4604121
:10077000C8F80010D8F80010A26821F0F001114369
:10078000C8F80010C0073FD1D8F8F80300F0070000
:10079000A84207D988F8F853D8F8F80300F0070002
:1007A000A8424BD12068410707D5D8F80010E2686D
:1007B00021F4E0511143C8F80010000708D5D8F81B
:1007C0000000216920F4604040EAC100C8F8000040
:1007D00000F07CF8D8F8001042F62862C1F303114B
:1007E000C0F60002515C40F2100220FA01F140F222
:1007F0000800C2F200000068C2F200021160FFF7B8
:1008000001FF0020BDE8F0816068811E022907D247
:1008100058F8081C89015CBF0120BDE8F08111E097
:10082000012807D158F8081C89035CBF0120BDE8E6
:10083000F08107E058F8081C890703D40120BDE8BF
:10084000F08100BFD8F8001021F003010843C8F878
:100850000000FFF7A7FE064641F28837D8F80000EF
:10086000616800F00C00B0EB810F8DD0FFF79AFEAD
:10087000801BB842F2D90320BDE8F08140F210009D
:1008800043F60801C2F20000C4F2020100680968E0
:1008900042F63862C1F38221C0F60002515CC840C2
:1008A0007047000040F2100043F60801C2F2000059
:1008B000C4F202010068096842F63862C1F34231AD
:1008C000C0F60002515CC8407047000010B543F606
:1008D0000404C4F20204606800F00C0142F200401B
:1008E0000829C0F2F40007D0042918BF10BD41F256
:1008F0000020C0F27A0010BD216801F03F0221689B
:1009000023684902C3F3881106D4A1FB0001002328
:10091000FFF756FC07E000BF41F20020C0F27A006A
:100920004843B0FBF2F021680222C1F3014102EB1F
:100930004101B0FBF1F010BD2DE9F04182B000287B
:100940006AD00446007843F60006C007C4F20206E7
:100950000BD0B06800F00C00042840F0A180306893
:10096000800302D56068002856D0207880071AD509
:10097000B06810F00C0F09D0B06800F00C00082827
:1009800040F0A8807068400200F1A48030688007C1
:1009900002D5E06801283FD13068216920F0F800D5
:1009A00040EAC10030602078000739D42078400741
:1009B0004ED4A5695DB3B06800F00C00082840F083
:1009C000BD80012D28D07068E16900F480028A4260
:1009D00022D1216A00F03F028A421DD147F6C07140
:1009E000626A0140B1EB821F16D1A26A0023CFF6E2
:1009F000FF7303EBC23200F440316FF30F029142F8
:100A00000AD1E16A00F07060B0EB016F04D1002000
:100A100002B0BDE8F08100BF012002B0BDE8F08166
:100A20006069002840F20000C4F2472076D001211E
:100A3000C0F8801EFFF7B6FD054600BF706F800747
:100A4000B4D4FFF7AFFD401B0228F7D9DDE000BFAB
:100A5000306C10F080580AD100200190306C40F0CA
:100A600080503064306C00F080500190019847F263
:100A70000007C4F200073868C00541D4386840F464
:100A800080703860FFF78EFD054600BF3868C005EE
:100A900036D4FFF787FD401B0228F7D9B5E000BF29
:100AA000B06800F00C00082803D1706840023FF5E0
:100AB00056AF6068B0F5803F07D0B0F5A02F40F08A
:100AC0008D80306840F480203060306840F48030A1
:100AD00030608DE0E068002852D00020C4F247204A
:100AE00001210160FFF75EFD054600BF3068800709
:100AF0003FF552AFFFF756FD401B0228F6D984E0C0
:100B0000A068012805D005284ED1306F40F00400C0
:100B10003067306F40F0010030674FE00021C0F8CF
:100B2000801EFFF73FFD0546706F80077FF53EAFE3
:100B3000FFF738FD401B0228F6D966E00027C4F213
:100B4000472700203866FFF72DFD022D05460BD103
:100B5000306880015ED5FFF725FD401B02284FF06D
:100B60000300F5D954E700BF306880017FF54FAF2F
:100B7000FFF718FD401B02284FF00300F4D947E7A8
:100B80000020C4F2472000210160FFF70BFD05465D
:100B9000306880077FF507AFFFF704FD401B022890
:100BA0004FF00300F4D933E7316F002821F0010141
:100BB0003167316F21F0040131674DD0FFF7F2FC4E
:100BC000054641F2883700BF306F800756D4FFF7E3
:100BD000E9FC401BB842F7D917E000BF3168002894
:100BE00021F480313160316821F4802131604FD0AF
:100BF000FFF7D8FC054600BF306880033FF5B5AE6F
:100C0000FFF7D0FC401B6428F6D9032002B0BDE8F2
:100C1000F08100BF04F11C052FCD08430021CFF661
:100C2000FF7140EA821001EBC3316FF30F0140EA1C
:100C300005600843706001203866FFF7B3FC044686
:100C4000306880013FF5E3AEFFF7ACFC001B0228E3
:100C50004FF00300F4D9DBE6FFF7A4FC054641F2B0
:100C6000883700BF306F800708D5FFF79BFC401B1B
:100C7000B8424FF00300F5D9CAE600BFB8F1000F43
:100C80007FF497AE306C20F08050306491E600BF66
:100C9000FFF788FC054600BF306880037FF565AE2E
:100CA000FFF780FC401B64284FF00300F4D9AFE647
:100CB000411E0020B0EB116F1CBF012070474EF2A7
:100CC0001002CEF2000251604EF62351CEF2000126
:100CD000F0230B700721906011607047704700008F
:100CE00070470000B0B590F83C20012A04BF0220F4
:100CF000B0BD01F108053CCDD1E900CE23F47C5311
:100D000022F470521A432EF4F0431A432CF4E043B9
:100D10001A4324F4C0431A432A43C96922F4804287
:100D2000036811435964002180F83C100846B0BDA7
:100D300010B590F83C20012A4FF0020251D080F803
:100D40003D200268D2F804E0D2F808C00C682EF00A
:100D50007003234341F2FF74C4F20004A2425360C3
:100D60000EDC40F2FF73C4F200039A4216DCB2F1CB
:100D7000804F2BD040F20043C4F2000324E000BFB8
:100D800040F2FF33C4F201039A4213DC41F6000340
:100D9000C4F200039A4219D0002313E040F6000386
:100DA000C4F200039A4211D040F60043C4F200039B
:100DB0000AE000BF44F20003C4F201039A4205D0E6
:100DC00040F20043C4F201039A4204D149682CF076
:100DD0008003194391600121002280F83D1080F8C2
:100DE0003C20104610BD0000002804BF01207047C1
:100DF00010B5044690F83D0028B9002084F83C0066
:100E0000204600F01FF8022084F83D002068211DD4
:100E100001F096FE012084F8460084F83E0084F834
:100E20003F0084F8400084F8410084F8420084F8D0
:100E3000430084F8440084F8450084F83D00002015
:100E400010BD000080B582B0006840F6FF31C4F2EA
:100E50000001884220DD4FF6FF71C4F20001884294
:100E60003ADC40F60041C4F20001884250D042F220
:100E70000001C4F2000188426BD10020019043F6CA
:100E80004000C4F20200016841F480710160006812
:100E900000F480706DE000BFB0F1804F4AD040F2A6
:100EA0000041C4F20001884270D040F60001C4F253
:100EB000000188424DD10020019043F64000C4F269
:100EC0000200016841F004010160006800F00400C4
:100ED0000190019802B080BD40F20041C4F20101CE
:100EE000884239D00021C4F20101884231D100206A
:100EF000019043F64000C4F20200416841F0010154
:100F00004160406800F001000190019802B080BD8E
:100F10000020019043F64000C4F20200016841F055
:100F200008010160006800F008000190019802B01B
:100F300080BD00BF0020019043F64000C4F20200D3
:100F4000016841F001010160006800F001000190BA
:100F5000019802B080BD00BF0020019043F6400020
:100F6000C4F20200416841F002014160406800F0B3
:100F70000200019001982D2000210022FFF792FB32
:100F80002D2002B0BDE88040FFF77CBB002001901F
:100F900043F64000C4F20200016841F00201016022
:100FA000006800F002000190019802B080BD0000CE
:100FB00090F83D1001291CBF01207047022180F8E4
:100FC0003D10006841F2FF72C168C4F20002904215
:100FD00041F00101C1600DDC40F2FF71C4F200017B
:100FE000884215DCB0F1804F2AD040F20041C4F2B3
:100FF000000123E040F2FF31C4F20101884213DC1A
:1010000041F60001C4F20001884219D0002113E02A
:1010100040F60001C4F20001884211D040F60041C0
:10102000C4F200010AE000BF44F20001C4F2010171
:10103000884205D040F20041C4F20101884206D145
:10104000816801F00701062904BF0020704701688C
:1010500041F0010101600020704700000146006876
:1010600041F21113C26822F00102C260026A1A4200
:1010700004D00122002081F83D207047026A40F22E
:1010800044431A42F5D1026822F0010202600122B3
:10109000002081F83D20704780B590F83C20012A5F
:1010A0004FF0020200F0C28080F83D20D0F800C06E
:1010B0004FF67772DCF8083023EA0202CCF80820F9
:1010C0000B684F2B28DC1F2B44DD202B45D0302B09
:1010D00043D0402B40F0AC80D1F804E0C968DCF884
:1010E0002030DCF8202022F00102CCF82020DCF8AF
:1010F000182022F0F00242EA011123F00A0242EA2B
:101100000E02CCF81810CCF82020DCF8081041F0C2
:10111000470121F0300180E06F2B27DDB3F5005F40
:1011200048D0B3F5805F7AD0702B40F08180D1E950
:1011300001E3C968DCF8082043EA0E0322F47F4289
:1011400043EA01211143CCF80810DCF8081041F003
:10115000770162E00BB1102B6AD1DCF8081021F0A6
:101160007001194341F0070157E000BF502B35D003
:10117000602B5DD1D1F804E0C968DCF8203023F0A1
:101180001003CCF82030DCF81830DCF8202023F4F1
:10119000704322F0A00243EA013142EA0E12CCF879
:1011A0001810CCF82020DCF8081041F0670121F07D
:1011B000100132E0D1E901E3C968DCF8082043EA14
:1011C0000E0322F47F4243EA01211143CCF80810B8
:1011D000DCF8081041F480411FE000BFD1F804E0C2
:1011E000C968DCF82030DCF8202022F00102CCF8BD
:1011F0002020DCF8182022F0F00242EA011123F04E
:101200000A0242EA0E02CCF81810CCF82020DCF8D2
:10121000081041F0570121F02001CCF808100022FD
:10122000012180F83D10002180F83C10104680BD5F
:101230000122F5E77047000010B50168044608690F
:10124000800744BFC8685FEA807039D408694007E6
:1012500044BFC8685FEA40703ED40869000744BFD5
:10126000C8685FEA007045D40869C00644BFC86812
:101270005FEAC0604AD40869C0071CBFC8685FEA5B
:10128000C07051D10869000644BFC8685FEA0060B9
:1012900052D40869400644BFC8685FEA406053D42E
:1012A0000869800646BFC8685FEA806010BD6FF0BD
:1012B000200220460A61BDE81040FFF711BD00BFC3
:1012C0006FF002000861012020778869800743D011
:1012D0002046FFF7AFFF45E06FF0040008610220F1
:1012E0002077886910F4407F40D02046FFF7A2FFA6
:1012F00042E000BF6FF00800086104202077C86951
:1013000080073DD02046FFF795FF3FE06FF01000CB
:10131000086108202077C86910F4407F3AD0204641
:10132000FFF788FF3CE000BF6FF001000861204636
:1013300000F018FB2168A5E76FF0800008612046E7
:10134000FFF7CCFC2168A4E76FF04000086120465D
:1013500000F020FD2168A3E7204600F033F9204685
:1013600000F074FA2168002020776FE7204600F033
:1013700029F9204600F06AFA2168002020776CE7FE
:10138000204600F01FF9204600F060FA2168002096
:10139000207769E7204600F015F9204600F056FA5C
:1013A00021680020207766E7F0B587B0006840F636
:1013B000FF31C4F2000188424FF000010691CDE9EF
:1013C0000411CDE902112DDCB0F1804F5CD040F268
:1013D0000041C4F20001884200F0888040F600011C
:1013E000C4F20001884240F0EB80002043F6300157
:1013F0000190C4F202010A6842F008020A6009681A
:1014000001F00801019101994FF4E041029102219C
:10141000CDE90310CDE905010020C4F2020000F57A
:101420004060CAE040F60041C4F20001884200F08A
:101430008D8040F20041C4F20101884200F0A0809A
:101440000021C4F20101884240F0BA80002043F636
:1014500030010190C4F202010A6842F010020A60F1
:10146000096801F01001019101994FF4285102918E
:101470000221CDE903100590012006900020C4F25E
:10148000020000F5805098E0002543F630000195F9
:10149000C4F202000168002441F00101016001680A
:1014A000C4F2020401F00101019101990195016862
:1014B000022641F0020101600068012700F00200ED
:1014C000019001982020029002A92046CDE90365F1
:1014D00005950697FEF77AFF4FF48160CDE9020685
:1014E000CDE90455069704F5806066E0002543F6D3
:1014F00030000195C4F202000168002441F00101AE
:1015000001600168C4F2020401F001010191019936
:1015100001950168022641F002010160006802A9FC
:1015200000F0020001900198802002902046CDE951
:101530000365CDE90556FEF749FF0320CDE9020614
:10154000CDE90455069604F5806036E0002043F6A8
:1015500030010190C4F202010A6842F001020A60FF
:10156000096801F00101019101990721029102210D
:10157000CDE90310CDE905010020C4F202001CE012
:10158000002043F630010190C4F202010A6842F0E3
:1015900004020A60096801F00401019101994FF405
:1015A000E07102910221CDE903100590032006901D
:1015B0000020C4F2020000F5006002A9FEF706FF59
:1015C00007B0F0BD704700002DE9F04190F83C30C5
:1015D000012B04BF0220BDE8F0814FEAB202032ACA
:1015E00000F2FC80DFE802F0023E7EBE036840F2BB
:1015F00000471A6A43F4806522F001021A621C6AED
:101600001A46D3F804E052F818CF8E6824F002048A
:10161000C4F20107BD4244EA060405D1CE6824F0B5
:101620000C0426F0040634430E68BD4207D1D1E90C
:1016300005572EF4407E45EA0E0545EA070E2CF0CC
:1016400073073743C3F804E09F614F6809695F631C
:101650001C629F6947F008079F619F6927F0040794
:101660009F61B1E0036840F200481A6A43F4806564
:1016700022F010021A621C6A1A46D3F804E052F8EB
:1016800018CF8F6824F02004C4F20108454544EACD
:10169000071407D1CF686FF0400624F0C00406EAB3
:1016A000071634430F68454507D1D1E905562EF496
:1016B000406E4EEA850545EA860E2CF4E64646EA7B
:1016C0000727C3F804E09F614F6809699F631C62A4
:1016D0009F6947F400679F619F6927F480679F6156
:1016E00071E000BF036840F200481A6A43F4806565
:1016F00022F480721A621C6A1A46D3F804E052F887
:101700001CCF8F6824F40074C4F20108454544EAF4
:10171000072408D1CF6840F2FF463F0224F440641A
:1017200027EA060634430F68454507D1D1E9055637
:101730002EF4405E4EEA051545EA061E2CF07306AF
:101740003743C3F804E0DF614F680969DF631C6257
:10175000DF6947F00807DF61DF6927F00407DF6111
:1017600032E000BF036840F200451A6A43F4806724
:1017700022F480521A621A46D3F820C05C6852F8EC
:101780001CEFD1F800808E68C4F20105AF4204D18D
:101790004D6924F4804444EA85142CF4005747EA48
:1017A00006372EF4E64646EA08265C60DE614E689F
:1017B00009691E641F62DF6947F40067DF61DF6942
:1017C00027F48067DF610902136819431160002163
:1017D000002280F83C200846BDE8F081012100226B
:1017E00080F83C200846BDE8F0810000002804BFD6
:1017F0000120704710B5044690F83D0028B900203C
:1018000084F83C00204600F01FF8022084F83D00D8
:101810002068211D01F094F9012084F8460084F825
:101820003E0084F83F0084F8400084F8410084F8CA
:10183000420084F8430084F8440084F8450084F8AA
:101840003D00002010BD0000704700007047000000
:1018500041B1082910D0042914BF00F1410200F160
:101860003F020BE090F83E20012A1CBF0120704788
:10187000022280F83E2013E000F140021278012A93
:101880001CBF012070470222082907D0042914BF79
:1018900080F8412080F83F2002E000BF80F840201F
:1018A000006801F01F010122036A02FA01F123EA34
:1018B00001020262026A114341F2FF72C4F20002A5
:1018C000904201620CDC40F2FF71C4F200018842D8
:1018D00014DCB0F1804F37D040F2004116E000BF79
:1018E00040F2FF31C4F20101884215DC41F60001EB
:1018F000C4F20001884227D0002115E040F6000123
:10190000C4F2000188421FD040F60041C4F2000139
:10191000884219D01FE000BF44F20001C4F2010167
:10192000884211D040F20041C4F20101884212D134
:10193000416C40F2004340F48062C4F2010341F480
:1019400000419A42416406D1816801F007010629ED
:1019500004BF00207047016841F0010101600020D0
:1019600070470000B0B5006842F20001C4F2000107
:1019700040F290048842C2F2000405D0201DBDE868
:10198000B040FFF715BB00BF201DFFF767FB2088A5
:10199000013081B23229208007D100202080002030
:1019A000C4F202004021FEF7EFFD40F20C00C2F24B
:1019B000000001784A1E112A00F2D481DFE812F0FB
:1019C00012001E002A004800540072009000AE0071
:1019D000C001CC00EA00F6001401320150016C0194
:1019E0008801A40140F2384CC4F2000CDCF800205D
:1019F00040F2DC0EC2F2000E74E100BF40F2384C3F
:101A0000C4F2000CDCF8042040F2F00EC2F2000E2A
:101A10008EE000BF40F2384C40F2041EC4F2000CCD
:101A2000C2F2000EDCF80820DEF8083003F13605BB
:101A3000AA4200F09581DEF804209342CCBF531CEB
:101A4000531E3632CEF80430CCF808208AE100BFAD
:101A500040F2340CC4F2000CDCF8002040F2540ECA
:101A6000C2F2000E3EE100BF40F2340C40F2680EBC
:101A7000C4F2000CC2F2000EDCF80420DEF80830DC
:101A800003F13205AA4200F06B81DEF80420934294
:101A9000CCBF531C531E3232CEF80430CCF8042095
:101AA00060E100BF40F2340C40F27C0EC4F2000C46
:101AB000C2F2000EDCF80820DEF8083003F1300531
:101AC000AA4200F04D81DEF804209342CCBF531CA3
:101AD000531E3032CEF80430CCF8082042E100BF6B
:101AE00040F2340C40F2180EC4F2010CC2F2000EA7
:101AF000DCF80020DEF8083003F13A05AA4200F0D5
:101B00002F81DEF804209342CCBF531C531E3A327F
:101B1000CEF80430CCF8002024E100BF40F2340CB1
:101B2000C4F2010CDCF8042040F22C0EC2F2000ECC
:101B3000DEF8083003F13605AA4200F01181DEF824
:101B400004209342CCBF531C531E3632CEF80430CF
:101B5000CCF8042006E100BF40F2384C40F2181ED9
:101B6000C4F2000CC2F2000EDCF8FC23DEF80830F0
:101B700003F13405AA4200F0F380DEF8042093421A
:101B8000CCBF531C531E3432CEF80430CCF8FC23A7
:101B9000E8E000BF40F2384CC4F2000CDCF800244E
:101BA00040F22C1EC2F2000E64E000BF40F63C0C76
:101BB00040F2401EC4F2000CC2F2000EDCF800201D
:101BC000DEF8083003F12A05AA4200F0C980DEF8E9
:101BD00004209342CCBF531C531E2A32CEF804304B
:101BE000CCF80020BEE000BF40F63C0C40F2541E92
:101BF000C4F2000CC2F2000EDCF8F823DEF8083064
:101C000003F13A05AA4200F0AB80DEF804209342CB
:101C1000CCBF531C531E3A32CEF80430CCF8F82314
:101C2000A0E000BF40F63C0C40F2681EC4F2000C7D
:101C3000C2F2000EDCF8FC23DEF8083003F12A05BE
:101C4000AA4200F08D80DEF804209342CCBF531CE2
:101C5000531E2A32CEF80430CCF8FC2382E000BFB9
:101C600040F63C0CC4F2000CDCF8002440F27C1E70
:101C7000C2F2000EDEF8083003F13005AA426FD040
:101C8000DEF804209342CCBF531C531E3032CEF8F2
:101C90000430CCF8002465E040F2340C40F2901E91
:101CA000C4F2010CC2F2000EDCF80024DEF80830A9
:101CB00003F13605AA4253D0DEF804209342CCBF8C
:101CC000531C531E3632CEF80430CCF8002449E0C1
:101CD00040F2384CC4F2010CDCF8002040F2A41EA3
:101CE000C2F2000EDEF8083003F13605AA4237D002
:101CF000DEF804209342CCBF531C531E3632CEF87C
:101D00000430CCF800202DE040F2384C40F2B81EF0
:101D1000C4F2010CC2F2000EDCF80420DEF8083038
:101D200003F13A05AA421BD0DEF804209342CCBF4F
:101D3000531C531E3A32CEF80430CCF8042011E084
:101D400040F2340C40F2400EC4F2010CC2F2000E1C
:101D5000DCF80820DEF8083003F12805AA420DD18E
:101D6000CEF804300131CAB2122A88BF01210170B5
:101D7000201DBDE8B040FFF71BB900BFDEF804200E
:101D80009342CCBF531C531E2832CEF80430CCF8FB
:101D90000820E7E770470000002804BF01207047D3
:101DA00010B5044690F83D0028B9002084F83C00A6
:101DB000204600F021F8242084F83D002068C16806
:101DC00021F40051C160204600F058FF20680169ED
:101DD00021F490410161416921F02A014161C1680A
:101DE00041F40051C16000202021206484F83D109E
:101DF00084F83E1010BD000080B586B0016841F245
:101E00000000C4F20100814202D006B080BD00BFD4
:101E1000002143F630020191C4F20202536900F539
:101E2000704043F010035361536903F010030193B2
:101E3000019B0191136843F001031360126802F0E3
:101E400001020192019A4FF4C06201920222CDE98F
:101E50000221032104910721059101A9FEF7B6FA99
:101E600006B080BD2DE9F04381B0044690F83D00F6
:101E700020280DD10F4600294FF0010000F0DD8031
:101E80001646002A00F0D98094F83C00012803D1BE
:101E9000022001B0BDE8F083012084F83C004FF03F
:101EA000000921201D46C4F8409084F83D00FEF74B
:101EB00079FBA684E684A1680646B1F5805F07D168
:101EC000206900281CBF38464F46B846074601E047
:101ED0004FF0000884F83C90E18C2068002900F065
:101EE0008B8005F101090AE047B317F8011B416037
:101EF000E18C0139E184E18C002900F07D800168EA
:101F00000906F1D4B9F1000F0AD0EDB1FEF74AFB92
:101F1000801BA84218D8206801680906F6D5E3E7B7
:101F200001680906E0D4016809065CBF01685FEA40
:101F30000161D9D401680906F2D5D5E738F8021B4A
:101F400000276FF35F21D2E7206850E8030F216874
:101F500020F4D07041E80302BAB3206850E8030FC0
:101F6000216820F4D07041E8030272B3206850E881
:101F7000030F216820F4D07041E803022AB32068DF
:101F800050E8030F216820F4D07041E80302002AD2
:101F9000DAD11AE0206850E8050F216820F001002E
:101FA00041E80502DAB1206850E8050F216820F009
:101FB000010041E8050292B1206850E8050F216850
:101FC00020F0010041E805024AB1206850E8050F01
:101FD000216820F0010041E80502002ADAD1202022
:101FE00084F83D0084F83E00002084F83C00032083
:101FF00001B0BDE8F08300BF0168490619D4FDB106
:10200000691C0DD10168490613D4016849065CBFFB
:1020100001685FEA41610CD401684906F2D508E025
:10202000FEF7C0FA801BA8420AD820680068400664
:10203000F6D5202084F83D00002001B0BDE8F083F3
:10204000206850E8030F216820F4D07041E80302B3
:10205000E2B3206850E8030F216820F4D07041E813
:1020600003029AB3206850E8030F216820F4D0706F
:1020700041E8030252B3206850E8030F216820F4BE
:10208000D07041E80302002ADAD11FE0206850E84E
:10209000050F216820F0010041E80502002A9ED0CA
:1020A000206850E8050F216820F0010041E8050292
:1020B000002A3FF494AF206850E8050F216820F013
:1020C000010041E80502002A3FF489AF206850E88A
:1020D000050F216820F0010041E80502002AD5D152
:1020E0007DE70000FEE7000070B586B0002543F6EE
:1020F000300005950095C4F202000168002441F00B
:10210000040101600168C4F2020401F004010091BD
:10211000009900950168002241F08001016001688A
:10212000402601F08001009100990095016841F07E
:1021300001010160016801F0010100910099009521
:10214000016841F002010160016801F002010091A3
:1021500000990095016841F010010160016801F0EB
:102160001001009100990095016841F0080101609B
:102170000068402100F00800009000982046FEF71B
:102180000BFA0120CDE9020501A92046019604952C
:10219000FEF71CF906B070BD80B540F2900042F227
:1021A0000001C2F20000C4F2000140F8041F5321F4
:1021B000002200F1040C40F2E7338CE80E000261CB
:1021C0008261FEF711FE002808BF80BDBDE8804097
:1021D000FEF75CB810B596B040F2CC10002200219A
:1021E000C2F20000C4F2010240F28F6340F2CF74E9
:1021F0004FF0800C1591CDE913111191CDE90F111C
:10220000CDE90D11CDE90B11CDE90911CDE907118A
:10221000CDE90511CDE90311CDE90111C0E9002394
:10222000C0E90214C0E90411C0F818C0FEF7DCFDD3
:10223000002818BFFEF72AF84FF48050129040F2A1
:10224000CC10C2F2000012A9FEF726FF002818BF2A
:10225000FEF71CF840F2CC10C2F20000FFF7C6FAFD
:10226000002818BFFEF712F840F2CC100024C2F28A
:10227000000010A9CDE91044FEF75AFD002818BF50
:10228000FEF704F86020CDE9090440F2CC10C2F258
:10229000000009A90022CDE90B44CDE90D440F94BB
:1022A000FFF792F9002818BFFDF7F0FF40F2CC10BD
:1022B000C2F2000009A90422FFF786F9002818BF1E
:1022C000FDF7E4FF40F2CC10C2F2000009A9082299
:1022D000FFF77AF9002818BFFDF7D8FF0020059016
:1022E000CDE90300CDE901004FF40051089040F220
:1022F000CC100691C2F2000001A9FEF7F3FC002801
:1023000018BFFDF7C3FF40F2CC10C2F20000FFF788
:102310004BF816B010BD000010B58EB040F214207E
:102320000021C2F2000040F2CF740D91CDE90B11F3
:102330000991CDE90711CDE90511CDE90311CDE9E9
:1023400001114FF0804240F24733C0E902140161AD
:102350008021C0E900238161FEF746FD002818BFF7
:10236000FDF794FF4FF480500A9040F21420C2F21F
:1023700000000AA9FEF790FE002818BFFDF786FFAF
:1023800040F21420C2F20000FFF730FA002818BF14
:10239000FDF77CFF40F214200024C2F2000008A9DF
:1023A000CDE90844FEF7C4FC002818BFFDF76EFF16
:1023B0006020CDE9010440F21420C2F2000001A91E
:1023C000002203940594FFF7FFF8002818BFFDF7DB
:1023D0005DFF40F21420C2F2000001A90422FFF7C1
:1023E000F3F8002818BFFDF751FF40F21420C2F2A5
:1023F000000001A90822FFF7E7F8002818BFFDF741
:1024000045FF40F21420C2F20000FEF7CDFF0EB0EF
:1024100010BD000010B58EB040F25C200021C2F269
:10242000000040F2004240F2CF740D91CDE90B1153
:102430000991CDE90711CDE90511CDE90311CDE9E8
:102440000111C4F2000240F24733C0E902140161F5
:102450008021C0E900238161FEF7C6FC002818BF77
:10246000FDF714FF4FF480500A9040F25C20C2F256
:1024700000000AA9FEF710FE002818BFFDF706FFAE
:1024800040F25C20C2F20000FFF7B0F9002818BF4C
:10249000FDF7FCFE40F25C200024C2F2000008A917
:1024A000CDE90844FEF744FC002818BFFDF7EEFE16
:1024B0006020CDE9010440F25C20C2F2000001A9D5
:1024C000042203940594FFF77FF8002818BFFDF756
:1024D000DDFE40F25C20C2F2000001A90822FFF7F5
:1024E00073F8002818BFFDF7D1FE40F25C20C2F25D
:1024F000000001A90C22FFF767F8002818BFFDF7BC
:10250000C5FE40F25C20C2F20000FEF74DFF0EB0A7
:1025100010BD000010B58EB040F2A4200021C2F220
:10252000000040F6000240F2CF740D91CDE90B118E
:102530000991CDE90711CDE90511CDE90311CDE9E7
:102540000111C4F2000240F24733C0E902140161F4
:102550008021C0E900238161FEF746FC002818BFF6
:10256000FDF794FE4FF480500A9040F2A420C2F28E
:1025700000000AA9FEF790FD002818BFFDF786FEAF
:1025800040F2A420C2F20000FFF730F9002818BF83
:10259000FDF77CFE40F2A4200024C2F2000008A94E
:1025A000CDE90844FEF7C4FB002818BFFDF76EFE16
:1025B0006020CDE9010440F2A420C2F2000001A98C
:1025C000002203940594FEF7FFFF002818BFFDF7D3
:1025D0005DFE40F2A420C2F2000001A90422FEF731
:1025E000F3FF002818BFFDF751FE40F2A420C2F20D
:1025F000000001A90822FEF7E7FF002818BFFDF739
:1026000045FE40F2A420C2F20000FEF7CDFE0EB05F
:1026100010BD000010B58EB040F2EC200021C2F2D7
:10262000000040F6004240F2CF740D91CDE90B114D
:102630000991CDE90711CDE90511CDE90311CDE9E6
:102640000111C4F2000240F24733C0E902140161F3
:102650008021C0E900238161FEF7C6FB002818BF76
:10266000FDF714FE4FF480500A9040F2EC20C2F2C5
:1026700000000AA9FEF710FD002818BFFDF706FEAE
:1026800040F2EC20C2F20000FFF7B0F8002818BFBB
:10269000FDF7FCFD40F2EC200024C2F2000008A986
:1026A000CDE90844FEF744FB002818BFFDF7EEFD16
:1026B0006020CDE9010440F2EC20C2F2000001A943
:1026C000002203940594FEF77FFF002818BFFDF752
:1026D000DDFD40F2EC20C2F2000001A90422FEF769
:1026E00073FF002818BFFDF7D1FD40F2EC20C2F2C5
:1026F000000001A90822FEF767FF002818BFFDF7B8
:10270000C5FD40F2EC20C2F20000FEF74DFE0EB017
:1027100010BD000010B596B040F2343040F20042D7
:102720000021C2F20000C4F2010240F28F6340F2C5
:10273000CF741591CDE913111191CDE90F11CDE9A8
:102740000D11CDE90B11CDE90911CDE90711CDE945
:102750000511CDE90311CDE90111C0E90023C0E95C
:102760000214C0E904118161FEF73EFB002818BF86
:10277000FDF78CFD4FF48050129040F23430C2F2DD
:10278000000012A9FEF788FC002818BFFDF77EFDA7
:1027900040F23430C2F20000FFF728F8002818BFDA
:1027A000FDF774FD40F234300024C2F2000010A99D
:1027B000CDE91044FEF7BCFA002818BFFDF766FD0E
:1027C0006020CDE9090440F23430C2F2000009A9CA
:1027D0000022CDE90B44CDE90D440F94FEF7F4FE41
:1027E000002818BFFDF752FD40F23430C2F200005D
:1027F00009A90422FEF7E8FE002818BFFDF746FDF0
:1028000040F23430C2F2000009A90822FEF7DCFED3
:10281000002818BFFDF73AFD00200590CDE9030020
:10282000CDE901004FF40051089040F23430069198
:10283000C2F2000001A9FEF755FA002818BFFDF703
:1028400025FD40F23430C2F20000FEF7ADFD16B0B7
:1028500010BD000080B540F27C3041F20001C2F2B0
:102860000000C4F2010100234FF00C0C4FF4E132E0
:1028700080E80E00C0E90333C0E905C3C361FFF778
:102880008BFA002808BF80BDBDE88040FDF7FEBC84
:10289000FEE70000FEE70000704700007047000000
:1028A00070B540F2CC14C2F2000420460021FEF7BD
:1028B000CFFF20460421FEF7CBFF20460821FEF77C
:1028C000C7FF40F21424C2F2000420460021FEF7A4
:1028D000BFFF20460421FEF7BBFF20460821FEF77C
:1028E000B7FF40F25C24C2F2000420460421FEF748
:1028F000AFFF20460821FEF7ABFF20460C21FEF774
:10290000A7FF40F2A424C2F2000420460021FEF7F3
:102910009FFF20460421FEF79BFF20460821FEF77B
:1029200097FF40F2EC24C2F2000420460021FEF79B
:102930008FFF20460421FEF78BFF20460821FEF77B
:1029400087FF40F23434C2F2000420460021FEF733
:102950007FFF20460421FEF77BFF20460821FEF77B
:1029600077FF40F2180340F2DC0140F2541240F2CB
:10297000340EC2F200035A20C2F20001C2F2000279
:10298000C4F2010E4FF0940C902482251860586117
:1029900098629860D8611863D8631865586658645F
:1029A0009865D8660860486188628860C861086375
:1029B000C8630865486648648865C86610605061E9
:1029C00090629060D0611063D0631065506650646F
:1029D0009065D066CEF800C05860CEF8044098618B
:1029E000CEF808503425C4F200058C26D8622C603D
:1029F00018646E608A265865AE60986640F2384367
:102A0000C4F200038E251C6048605C6088619C6095
:102A1000C862C3F8FC530864C3F8006440F63C0382
:102A2000C4F20003842548651D60886640F2384181
:102A3000C4F20101C3F8F8C35060C3F8FC539061BD
:102A4000C3F80064D062CEF8004410640C60506596
:102A5000C1F804C0906670BDFDF7AABDB0B592B0D4
:102A6000002443F640000B94CDE90944CDE9074426
:102A70000594CDE90344CDE901440094C4F2020079
:102A80000168022541F080510160006800F080502B
:102A90000090009847F200000094C4F20000016822
:102AA00041F480410160006800F48040009000988B
:102AB0000120099010200A9008200E90A820CDE94E
:102AC0000F050420119006A80695CDE90C54FDF7DA
:102AD00033FF28B1EFF3108072B600BFFEE700BFEE
:102AE0000F20CDE901054FF4A05004904FF4805021
:102AF000059001A805210394FDF710FE20B1EFF326
:102B0000108072B6FEE700BF12B0B0BD4EF688501E
:102B1000CEF20000016841F47001016070470000CE
:102B200080B540F23430C2F20000FEF785FB40F27F
:102B30009400C2F20000BDE88040FEF77DBB0000BB
:102B400010B540F6FF3E0368C4F2000E40F2004CA0
:102B50007045C4F2010C27DCB0F1804F31D040F257
:102B60000042C4F2000290422BD040F60002C4F2B0
:102B70000002904225D041F6FF72C4F2000290425A
:102B800029DC70453CDCB0F1804F5FD040F2004260
:102B9000C4F20002904259D040F60002C4F2000292
:102BA000904253D056E000BF40F60042C4F200020B
:102BB000904206D0604504D00022C4F20102904247
:102BC000D9D14A6823F07003134341F6FF72C4F26F
:102BD00000029042D5DD43F6FF72C4F2010290423A
:102BE00022DC42F20002C4F2000290422ED0002207
:102BF000C4F20102904229D0604527D02AE000BFEC
:102C000040F60042C4F2000290421FD041F600029A
:102C1000C4F20002904219D041F60042C4F2000210
:102C2000904213D016E000BF44F20002C4F2010249
:102C300090420BD044F60002C4F20102904205D04B
:102C400044F20042C4F20102904203D1CA6823F464
:102C50004073134323F080024B69D1F800E08C6885
:102C60001A430260C46240F48062C0F828E0624502
:102C700004BF096901630121416110BD10B504461B
:102C80000068D4E902C22369016921F4405111436B
:102C90000161626943EA0C01E3691143C2681943A7
:102CA00049F20C639A431143C1604169A26921F45E
:102CB000407141F20043114340F48062C4F20103C9
:102CC0009A42416102D1FDF7EDFD01E0FDF7D6FD2D
:102CD000E16963681922B1F5004FA0FB02011FD121
:102CE0005A00DB0FFDF76CFA48F21F51C5F2EB11E9
:102CF000A0FB01235A096FF0630302FB0300322398
:102D000003EBC000A0FB01014FF4F87000EA1110C2
:102D100000EB0210C1F3421108442168886010BD25
:102D20009A009B0FFDF74CFA48F21F51C5F2EB11C8
:102D3000A0FB01235A096FF0630302FB0300322357
:102D400003EB0010A0FB0101F02000EA511000EBA2
:102D50000210C1F3431108442168886010BD0000CF
:102D6000FEE7000080B582B0019040F27C30C2F2F4
:102D7000000001A901224FF47A73FFF773F801985C
:102D800002B080BDFDF722FCFFF768FEFFF7ACF94B
:102D9000FFF7C0FCFFF75EFDFFF71CFAFFF7BCFA78
:102DA000FFF738FBFFF7B6FBFFF734FCFFF7F4F94A
:102DB00040F29400C2F20000FEF7FAF806A000F01C
:102DC00021F8FFF76DFD4FF47A70FDF7EBFA00BFC5
:102DD000FDF762FAFCE700BF496E6974204F4B2192
:102DE0000D00000002E008C8121F08C1002AFAD135
:102DF00070477047002001E001C1121F002AFBD17B
:102E00007047000010B5044601E0FFF7ABFF14F86F
:102E1000010B04490028F8D1BDE810400A20FFF753
:102E2000A1BF000000000020000000000000000022
:102E30000102030406070809000000000102030460
:102E4000602E00080000002018000000E42D00089B
:102E5000782E000818000020B0070000F42D0008AC
:102E60000000000001000000100000000100000050
:082E70000024F4000000000042
:040000050800018965
:00000001FF
